:020000040800F2
:1000000080040020010100083B1E00083918000888
:10001000391E00085B090008891E00080000000066
:100020000000000000000000000000003F1E00086B
:100030005D090008000000003D1E0008411E000888
:100040001B0100081B0100081B0100081B01000820
:100050001B0100081B0100081B0100081B01000810
:100060001B0100081B0100081B0100081B01000800
:100070001B0100081B0100081B0100081B010008F0
:100080001B0100081B0100081B0100081B010008E0
:100090001B0100081B0100081B0100081B010008D0
:1000A0001B0100081B0100081B0100081B010008C0
:1000B0001B0100081B0100081B0100081B010008B0
:1000C0001B0100081B0100081B0100081B010008A0
:1000D0001B0100081B0100081B0100081B01000890
:1000E0001B0100081B0100081B010008DFF80CD0F1
:1000F00000F000FC00480047E128000880040020D0
:100100000648804706480047FEE7FEE7FEE7FEE7B1
:10011000FEE7FEE7FEE7FEE7FEE7FEE7871E0008D4
:10012000ED000008202A04DB203A21FA02F0002129
:10013000704721FA02F3D040C2F1200291400843F7
:1001400019467047D2B201E000F8012B491EFBD2DC
:1001500070470022F6E710B513460A4604461946D2
:10016000FFF7F0FF204610BDF0B480EA0102D40F83
:100170004200B2EB410F02D20246084611464A0045
:1001800042D0C30DDDB2C1F3C752AD1A202D35DA0E
:10019000C1F3160141F4000204B15242C5F1200638
:1001A00002FA06F12A411044B3EBD05F23D0C4B168
:1001B000012DA0EBC35009DCF0BC4FF0004202EA75
:1001C000C352DBB200F5000000F0FFB8400000F1C0
:1001D000807000EBC350A0F1807040EAD1704900FC
:1001E00009E0490841EAC071A0EBC35000F50000E6
:1001F000400800EBC350F0BC00F0DEB861420122C1
:1002000002EB4101001BF6E7F0BC704781F00041B2
:10021000AAE780F00040A7E780EA010210B502F0EB
:100220000043400022D04A001FD0010E01EB1261B2
:10023000C0F35600C2F3560240F4000042F400023C
:10024000A0FB022000047F39140400D0401C50EAB7
:10025000124001D44000491EC2B20C0604EBD0107B
:10026000401C4008802A02D003E0002010BD20F08E
:100270000100002900DA0020184310BD70B521F0FC
:10028000004303430CD0C1F30A550024D5EB040509
:1002900064EB0403D617AD1AB34102DB002001461C
:1002A00070BD201841EB025170BD0EB5C10F80EA40
:1002B000E0700844CA07002140F233438DE80E0085
:1002C0000A460B4600F0BEF803B000BD00F0004245
:1002D00030F000400AD0C10D01F56071C0F3160086
:1002E00042EA0151C208400711437047002001460D
:1002F000704701F0004330B421F0004150EA0102A0
:1003000006D00A0DA2F56072C1F31301002A02DCC7
:1003100030BC00207047440F44EAC104C100E0181B
:1003200030BC00EBC25000F047B830B50B46014678
:1003300000202022012409E021FA02F59D4205D384
:1003400003FA02F5491B04FA02F52844151EA2F12E
:100350000102F1DC30BD2DE9F05F05460020924638
:100360009B4688460646814640241BE02846414677
:1003700047462246FFF7D6FE53465A46C01A9141D9
:1003800010D311461846224600F0C6FA2D1A67EB24
:1003900001084F4622460120002100F0BDFA17EB6C
:1003A00000094E41201EA4F10104DFDC484631461D
:1003B0002A464346BDE8F09F0029A8BF7047401C6D
:1003C000490008BF20F00100704710B4B0FA80FC6B
:1003D00000FA0CF050EA010404BF10BC704749B1A8
:1003E000CCF1200421FA04F411FA0CF118BF012118
:1003F00021430843A3EB0C01CB1D4FEA00614FEAF8
:10040000102042BF002010BC704700EBC3501044C6
:100410000029A4BF10BC7047401C490008BF20F051
:10042000010010BC704710B5141E73F1000408DA07
:10043000401C41F1000192185B411A4301D120F0A8
:10044000010010BD2DE9F04D92469B4611B1B1FA65
:1004500081F202E0B0FA80F22032904600F05CFABD
:1004600004460F4640EA0A0041EA0B0153465A4649
:10047000084313D0114653EA010019D0C8F14002D5
:100480005046FFF74FFE05460E4650465946424637
:1004900000F042FA084305D0012004E02046394626
:1004A000BDE8F08D0020054346EAE0762C43374353
:1004B0000A986305E40AA0EB08000022FD0A44EA5A
:1004C00047540A3002D500200146E9E7010510191A
:1004D0006941DDE9084500196941BDE8F04DA2E731
:1004E0002DE9FE4F804681EA0300C00F0C460090C4
:1004F00021F0004123F00045B8EB0200A94105D2EC
:100500004046214690461C460B46024623F00040DA
:10051000104347D0270DC7F30A00C3F30A510290D6
:10052000401A019040286BDAC3F3130040F4801B9B
:100530000098924620B10023D2EB030A63EB0B0B29
:1005400001985946C0F14002504600F0E5F90646D0
:100550000D4650465946019A00F0EDF910EB08009F
:100560006141002487EA115284EAE7731A4340D0BC
:10057000009A62B3019A012A4FEA075215DC001B68
:1005800061EB02014FF0004202EA0752CDE900425E
:10059000001C41F5801132462B46FFF753FF03B094
:1005A000BDE8F08F40462146F9E7001B61EB0201F0
:1005B000001C41F5801300185B412018A2F50017BC
:1005C00047EB030140EAD570B6196D4111E06D08A3
:1005D0004FEA360645EAC0754FEA0752001B61EB49
:1005E0000201001C41F5801149084FEA3000001952
:1005F000514132462B4603B0BDE8F04FFFF713BF21
:100600000098012240000023D0EB020263EBE0736C
:10061000009821464FEAE074B8EB000061EB04015A
:10062000E9E783F000435BE781F0004158E72DE9FB
:10063000FE4F81EA030404F0004421F000410094DD
:100640004FF0000B23F0004350EA01045ED052EA61
:1006500003045BD0C3F30A54C1F30A552C44A4F23B
:10066000F3340194A0FB0254C1F3130141F480114F
:10067000C3F3130343F4801301FB024400FB034E56
:10068000840A970A44EA815447EA8357A4FB07681F
:1006900002958D0A05FB07854FEA932C04FB0C5449
:1006A0002705029D4FEA065847EA1637B5EB0805BD
:1006B0006EEB070C870E920E47EA811742EA83120F
:1006C000A7FB0201B6EB0B0164EB00042B0D43EA20
:1006D0000C335E1844EB1C50DA465146E7FB02012E
:1006E000C5F313044FEA0B3343EA14534FEA0432C1
:1006F000019C43EA0603A4F10C040294009CCDE99A
:1007000000B4FFF79FFE03B0BDE8F08F0020014664
:10071000F9E72DE9F04D81EA030404F0004B21F0E4
:10072000004514464FF0000A23F0004150EA05024C
:1007300020D054EA01021DD0C5F30A570246C5F382
:100740001303C1F31300C1F30A5640F4801543F4B8
:100750008013A7EB0608101BD64608F2FD3873EB92
:10076000050002D308F1010801E092185B41B8F1DD
:10077000000F03DA00200146BDE8F08D00204FF4A1
:100780008011064684460EE0171B73EB050705D360
:10079000121B63EB050306434CEA010C49084FEAC0
:1007A000300092185B4150EA0107EDD152EA030094
:1007B00012D082EA040083EA0501084305D0101B29
:1007C000AB4106D20122002306E000224FF0004395
:1007D00002E06FF0010253101AEB06004CEB0851D7
:1007E00010EB0A0041EB0B01BDE8F04DFFF71BBE1B
:1007F0002DE9F04D00231A461B1A8A4103DB002025
:100800000146BDE8F08DC1F30A52C1F3130141F472
:1008100080154FF0000BD10702D100186D41521E18
:100820000027044640F2FF11384601EB620A3E46BB
:100830008046024600204FF48011FFF773FCC21976
:100840007141BB1846EB0100B4EB030C75EB000CD7
:1008500004D3E41A65EB000517460E46241908F187
:1008600001006D4180463428E3DDF91946EB0600AE
:10087000091BA84103D24FF0FF32134601E00022CA
:1008800013461BEB070046EB0A51BDE8F04DFFF79E
:10089000CABDC1F30A52C1F3130140F2FF3341F460
:1008A00080119A4202DA00200146704740F2334339
:1008B0009A42A2F2334202DC5242FFF733BC00F00C
:1008C0002BB8000030B5041E71F1000404DB4FF0BA
:1008D0000044404264EB0101141E73F1000405DB87
:1008E0001C464FF00043524263EB0403994208BF99
:1008F000904230BD064C074D06E0E06840F0010331
:1009000094E8070098471034AC42F6D3FFF7F2FBA7
:10091000002B0008202B0008202A04DB203A00FAD4
:1009200002F1002070479140C2F1200320FA03F346
:10093000194390407047202A06DBCB17203A41FA32
:1009400002F043EAE07306E041FA02F3D040C2F15C
:1009500020029140084319467047FEE770470000A7
:1009600070B5044600F010F90546601C02D004483A
:100970000078044400F008F9401BA042FAD370BD8F
:10098000180000202DE9F84FDFF8B891002409F194
:10099000040A0AF1040B23460F270BF1040EC9E0E9
:1009A0000125A5402A40AA427DD1674ED1F804C056
:1009B000ACEB0608B44532D014DCBCF1030F3AD0DE
:1009C00009DCBCF1000F2AD0BCF1010F1CD0BCF136
:1009D000020F31D11DE0BCF1110F17D0BCF1120F85
:1009E0002AD119E0B8F5881F19D006DCB8F5803F88
:1009F00015D0B8F5801F1FD111E0B8F5001F0ED03B
:100A0000B8F5041F18D10AE0CB6815E0CB681B1DB0
:100A100012E0CB6808330FE0CB680C330CE08B6836
:100A20002BB1012B4FF0080303D0456104E00423F0
:100A300002E0056100E00023FF2A01D8064601E03C
:100A400000F104064FEA840501D9A5F12005D6F886
:100A5000008007FA05FC28EA0C0803FA05F548EAC5
:100A60000508C6F800804D68ED0062D5374DAE69C7
:100A700046F00106AE61AD6924F0030605F00105FC
:100A80000095334D06EB050CDCF80850A607360F31
:100A900007FA06F825EA0805DFF8B880404503D1D3
:100AA0004FF0000817E044E0DFF8AC80404502D189
:100AB0004FF001080FE0DFF8A480404502D14FF06D
:100AC000020808E0DFF89880404502D14FF00308A3
:100AD00001E04FF0040808FA06F848EA0508CCF8E7
:100AE00008804D68D9F80060ED034D4601D51643E6
:100AF00000E096432E604D68DAF80060AD0355467D
:100B000001D5164300E096432E604D68DBF8006087
:100B1000ED025D4601D5164300E096432E604D6818
:100B2000DEF80060AD02754601D5164300E096433D
:100B30002E60641C0D682A46E5407FF431AFBDE8A5
:100B4000F88F000000040140000011100010024066
:100B50000000014000080140000C0140001001406D
:100B6000001401408068084000D001207047C2682E
:100B700021EA02030A4043EA0241016170470AB1D7
:100B8000016170470904FBE7014880687047000075
:100B90001800002070B5040025D094F83D00002511
:100BA00020B984F83C50204600F00EFB242084F845
:100BB0003D002068016821F00101016020680168A2
:100BC00041F4004101602068016821F400410160A6
:100BD00000F048FC4D4A6168914201D84C4900E060
:100BE0004C49884201D2012070BD4B492368B0FBBB
:100BF000F1F15E6826F03F060E435E606368934243
:100C000006D94FF4967359434FF47A73B1FBF3F15D
:100C10002368491C1E6A26F03F0631431962616849
:100C2000914210D84900401EB0FBF1F2521CC2F3B1
:100C30000B02042A01D2042022E0B0FBF1F0401C98
:100C4000C0F30B001CE0A268F2B301EBC10303EB9D
:100C50000116431EB3FBF6F35B1C43F480431B05F4
:100C600049D092B301EBC10202EB0111401EB0FB6F
:100C7000F1F0401CC0F30B0040F4804040F4004011
:100C80002168CA694CF6FF739A431043C861D4E9DE
:100C9000071001432068026822F0C002114301607E
:100CA000D4E9030101432068826848F2FF339A4384
:100CB00011438160D4E9050108432168CA6822F024
:100CC000FF021043C86001E00EE016E020680168F2
:100CD00041F0010101602564202084F83D00256376
:100CE00084F83E50002070BD01EB4106431EB3FB6B
:100CF000F6F35B1CB3E70120C2E701EB4101401EA4
:100D0000B0FBF1F0401CC0F30B00B7E7A086010078
:100D100080841E0000093D0040420F002DE9F84F7D
:100D20001F4690468A460446DDF82890FFF72CFFC0
:100D3000054694F83D0020287FD11923012240491F
:100D40002046009500F0D6FE002876D194F83C00AD
:100D5000012872D0012084F83C0020680168C9078E
:100D600003D1016841F0010101602068016821F4AC
:100D700000610160212084F83D00102084F83E00CD
:100D800000262664C4F824806785608D20852D4860
:100D9000E0622B464A465146204600F065FD90B978
:100DA000206841698069009036E02A46494620461D
:100DB00000F052FF50B1206C042804D12068016873
:100DC00041F4007101600120BDE8F88F606A21687C
:100DD00000780861606A401C6062618D491E61850F
:100DE000218D491E89B2218522685369DB435B0747
:100DF0000BD451B100781061606A401C6062608D54
:100E0000401E6085208D401E20852A46494620468A
:100E100000F04AFE0028CED1208D0028C5D154F81C
:100E20003D0B016841F400710160202004F81E09A7
:100E3000E67766770020C7E7FFE70220C4E70000F7
:100E4000020010000000FFFF2DE9FF4F83B00025D6
:100E5000DDE910799A4693460446DDF8488000950E
:100E6000FFF792FE064694F83D0020287CD1192316
:100E7000012285492046009600F03CFE0028F5D16D
:100E800094F83C0001286FD0012084F83C002068D1
:100E90000168C90703D1016841F0010101602068C0
:100EA000016821F400610160222084F83D004020A7
:100EB00084F83E0025646762A4F82A90608D20853E
:100EC0007248E062CDE9008653465A4620460499AE
:100ED00000F018FD00287DD1208DDFF8B491202787
:100EE00068B1012814D00228206801681ED041F49E
:100EF000806101602068416980690090B6E02068E7
:100F0000416981690091016841F400710160ADE0BF
:100F10002068016821F48061016072B6206841692F
:100F200081690091016841F400710AE041F40061B7
:100F3000016072B62068416981690091016821F4FD
:100F40008061016062B691E0032868D801280CD066
:100F5000022843464FF000024946204600960FD033
:100F600000F0C8FDB0BB10E08BE0324641462046A1
:100F700000F03FFE70BB20680069616A08706CE099
:100F800000F0B8FD30BB72B634E02068016821F48F
:100F90008061016072B620680069616A0870606AE9
:100FA000401C6062208D401E2085608D401E608543
:100FB000384846F2A8110068B0FBF1F0C0EBC00061
:100FC00000EB80000090401E009008D0206840692F
:100FD000C04300E029E040070CD50098F3E744F84F
:100FE000305F6773A573206940F02000206162B60E
:100FF00025731AE02068016841F4007101602068DF
:101000000069616A0870606A401C6062218D491E37
:101010002185618D491E618562B621681BE03246DB
:101020004146204600F0E5FD18B1012007B0BDE8BB
:10103000F08F20680069616A0870606A401C606215
:10104000218D491E2185618D491E618521684A696E
:10105000D24352070AD409690170606A401C606279
:10106000208D401E2085608D401E6085208D0028CB
:101070007FF46AAF84F83D7084F83E5084F83C50A9
:10108000D4E70220D2E70000020010000000FFFFBA
:1010900004000100240000202DE9FF4F83B09A4690
:1010A000DDE9119793460446DDF84080FFF76CFDBB
:1010B000054694F83D0020287FD11923012240499C
:1010C0002046009500F016FD002876D194F83C00EB
:1010D000012872D0012084F83C0020680168C9070B
:1010E00003D1016841F0010101602068016821F429
:1010F00000610160212084F83D00402084F83E001A
:1011000000262664C4F82480A4F82A90608D2085E7
:101110002C48E062CDE9007553465A4620460499B2
:1011200000F06EFC70B930E02A463946204600F0E7
:1011300093FD58B1206C042804D12068016841F463
:1011400000710160012007B0BDE8F08F606A21687E
:1011500000780861606A401C6062218D491E89B276
:101160002185628D521E628522685369DB435B07CD
:101170000BD469B100781061606A401C6062208DF8
:10118000401E2085608D401E6085208D0028CBD1BB
:101190002A463946204600F087FC0028CAD154F878
:1011A0003D0B016841F400710160202004F81E0924
:1011B000E67766770020C6E7FFE70220C3E7000076
:1011C000020010000000FFFF10B586B00021009162
:1011D00001910291039100680F4988421AD10F4C86
:1011E000A06940F00800A061A069694600F008000D
:1011F0000490C02000901220019003200390084822
:10120000FFF7C0FBE06940F40010E061E06900F422
:101210000010049006B010BD0054004000100240C1
:10122000000C0140024881680278114481607047D7
:1012300018000020074810B5016841F01001016056
:10124000032000F067F8002000F006F800F024F812
:10125000002010BD0020024070B50D4D04464FF433
:101260007A712878B1FBF0F00A490968B1FBF0F017
:1012700000F0CEFA48B9102C07D200222146501EA9
:1012800000F028F800206C6070BD012070BD0000E7
:1012900018000020240000200C4808B5816941F0A6
:1012A00001018161816901F001010091C16941F091
:1012B0008051C161C06900F08050009004484168CD
:1012C00021F0E06141F00071416008BD0010024072
:1012D00000000140F0B40E4B1B680C46C3F3022320
:1012E000C3F10705042D00D90425191D072901D2D2
:1012F000002300E0DB1E012606FA05F1491E21400D
:1013000099409E40761E16403143F0BC00F0D2BD9D
:101310000CED00E0064900F0070208684FF6FF03F5
:10132000184040EA0220034A10430860704700005A
:101330000CED00E00000FA052DE9F0470F4605002E
:1013400061D0434E306800F00700B84209D23068DF
:1013500020F0070038433060306800F00700B842E2
:1013600051D128683B4C810712D5400703D56068EE
:1013700040F4E06060602878000703D5606840F4BE
:10138000605060606068A96820F0F0000843606009
:101390002878C00728D06868012810D02168022862
:1013A00010D0890700292EDA616821F0030101437A
:1013B0006160FFF7E9FB804641F288390DE0216862
:1013C0008903EFE78901EDE7FFF7DEFBA0EB0801FA
:1013D000494502D90320BDE8F0876068696800F0DC
:1013E0000C00B0EB810FEFD1306800F00700B8427D
:1013F0000BD9306820F0070038433060306800F0C7
:101400000700B84201D00120E5E72878400705D55C
:101410006068E96820F4E0600843606028780007AD
:1014200006D56068296920F4605040EAC100606018
:1014300000F028F86168084AC1F30311515CC84004
:101440000649086006480068FFF706FF0020C2E76B
:101450000020024000100240E82A0008240000207A
:101460001C0000200448054900684968044AC1F38B
:101470000221515CC8407047240000200010024047
:10148000F82A000812A185B00FC98DE80F0014A03A
:10149000144A006804905168134801F00C03042BAF
:1014A00010D0082B0ED1C1F38343C9031DF80300EC
:1014B0000AD5516804AAC1F34041515C0A4A50431D
:1014C000B0FBF1F005B0704708494843FAE7000067
:1014D00002030405060708090A0B0C0D0E0F101075
:1014E000010200000010024000127A0000093D00D5
:1014F0002DE9F84F040070D02078C04DC00749D0C6
:101500006868C0F38100012807D06868C0F38100D3
:10151000022809D16868C00306D52868800339D538
:1015200060680028E7D035E06068B0F5803F0BD0F8
:1015300010B1B0F5A02F11D0286820F480302860B9
:10154000286820F4802002E0286840F48030286079
:10155000606890B1FFF718FB06460AE0286840F47F
:1015600080202860F0E700BFFFF70EFB801B642897
:1015700073D828688003F7D50CE0FFF705FB064613
:1015800005E000BFFFF700FB801B6428F0D8286847
:101590008003F7D420789A4E80074FF001094FF06E
:1015A000000839D5686810F00C0F07D06868C0F3E0
:1015B0008100022809D16868C00306D42868800722
:1015C00014D52069012808D110E02069B0B1C6F80F
:1015D0000090FFF7D9FA074605E00AE1FFF7D4FAD1
:1015E000C01B0228C4D828688007F7D5286861691D
:1015F00020F0F80040EAC10028600DE0C6F8008045
:10160000FFF7C2FA074604E0FFF7BEFAC01B022844
:1016100023D828688007F7D4207800072CD579488C
:10162000A169D9B1C0F80090FFF7AEFA074604E00F
:10163000FFF7AAFAC01B02280FD8686A8007F7D5FF
:1016400071484FF4FA510068B0FBF1F0009000BF10
:101650000098411E0091FAD20EE080E0C0F80080B0
:10166000FFF792FA074604E0FFF78EFAC01B022844
:1016700075D8686A8007F7D42078400760D5E86994
:101680000027C00008D4E86940F08050E861E869AC
:10169000012700F0805000905C480168C90513D410
:1016A0000168834641F480710160FFF76DFA82465C
:1016B00006E000BFFFF768FAA0EB0A0064284ED8E6
:1016C000DBF80000C005F5D5E06801280AD008B1B4
:1016D000052813D0286A20F001002862286A20F02B
:1016E000040002E0286A40F001002862E06841F24C
:1016F000883B98B1FFF748FA82460BE0286A40F031
:1017000004002862EEE700BFFFF73EFAA0EB0A01F3
:1017100059455AD8286A8007F6D50CE0FFF734FA05
:10172000824605E0FFF730FAA0EB0A0159454CD894
:10173000286A8007F6D41FB1E86920F08050E8617C
:10174000E06988B36968C1F38101022944D00228A5
:10175000C6F8608004D0FFF717FA044638E034E09A
:10176000FFF712FA074604E0FFF70EFAC01B022843
:101770002BD828688001F7D4206AB0F5803F05D1C6
:101780006868A16820F4003008436860D4E9080163
:101790000843696821F4741108436860C6F86090D2
:1017A000FFF7F2F9044606E025E000BFFFF7ECF989
:1017B000001B022809D828688001F7D51BE000BF6C
:1017C000FFF7E2F9001B022802D90320BDE8F88FD9
:1017D00028688001F4D40EE00128F7D06868226AF6
:1017E00000F48031914204D1616A00F470108842A3
:1017F00001D00120EAE70020E8E7000000100240E5
:101800000000424280044242240000200070004058
:1018100010B5401EB0F1807F01D3012010BD4FF004
:10182000E02460610F21601700F044FB0020A061FC
:1018300007202061002010BDFEE701684A69D243FD
:1018400052050FD46FF480624A61002140F8301FC6
:10185000202242738173026942F004020261017323
:101860000120704700207047F8B50446C06A1E4644
:101870000D461746082807D0012805D010F5803FEF
:1018800002D0206B122804D12068016841F48071D5
:101890000160134600224FF001112046009600F02F
:1018A00029F940B120680068C00502D54FF40070E6
:1018B00020640320F8BD2069B0F5804F0ED00620CB
:1018C000216800EAD51040F0F000086133463A463E
:1018D0000B49204600F042F978B902E005F0FE001D
:1018E00000E0E8B221680861054933463A46891F9D
:1018F000204600F033F90028DCD00120F8BD0000BC
:10190000080001002DE9F84F0446006889460B9D48
:1019100001689846174641F48061016020680168BB
:1019200041F48071016000954FF0011B002259467F
:1019300020460A9B00F0DEF84FF4007A40B12068A0
:101940000068C00501D5C4F840A00320BDE8F88FA9
:10195000216809F0FE0008612B46284920460A9AB2
:1019600000F0FCF8F0BB20684169806900902A46CD
:1019700020460A9900F070F940B1206C04283AD151
:101980002068016841F40071016034E0FEB2B8F1F2
:10199000010F09D02168380A08612A4620460A99B1
:1019A00000F05AF90028E8D1206806612A4620464E
:1019B0000A9900F051F90028DFD12068016841F44C
:1019C0008071016000950022594620460A9B00F074
:1019D00091F80028B3D1216809F0FF0040F0010020
:1019E000086100E007E02B46044920460A9A00F00F
:1019F000B5F80028AAD00120A8E7000002000100E5
:101A00002DE9F843044600680D46DDE908970168B2
:101A10009846164641F4807101604B4600224FF013
:101A200001112046009700F065F848B12068006871
:101A3000C00502D54FF4007020640320BDE8F88390
:101A4000216805F0FE0008613B464A4615492046DC
:101A500000F084F888B920684169806900903A46AE
:101A60004946204600F0F8F848B1206C042804D11B
:101A70002068016841F4007101600120DEE7F5B2E1
:101A8000B8F1010F09D02168300A08613A46494689
:101A9000204600F0E1F80028E7D120680561002029
:101AA000CCE700000200010070B516460D46044662
:101AB0000DE02046FFF7C1FE08B1012070BD681C93
:101AC00005D0FFF761F8801BA84207D835B1206820
:101AD0004069C0434007ECD4002070BD002044F8AA
:101AE000300F20216173A073216941F02001216131
:101AF0002073E2E72DE9F0471E4690460D46044666
:101B0000C1F30747DDF8209008E0701C06D0FFF70E
:101B10003BF8A0EB0900B0420FD876B12068012F46
:101B200018D0806925EA00000004000C14D00021C0
:101B30004145EAD00020BDE8F087002044F8300F8E
:101B400020216173A073216941F02001216120737C
:101B50000120F0E74069E5E70121E9E72DE9F047D9
:101B60009A4691460E46044600254FF02008C1F3E0
:101B7000074725E020684069C043400514D4206829
:101B8000016841F40071016021686FF48060486170
:101B9000256384F83D8084F83E50206C40F00400BA
:101BA000206484F83C501FE0B9F1FF3F08D0FEF7F5
:101BB000EBFFA0EB0A0149450CD8B9F1000F09D0A1
:101BC0002068012F13D0806926EA00000004000C71
:101BD0000BD0CFE744F8305F84F80D80A5732069FF
:101BE00040F02000206125730120BDE8F0874069A6
:101BF000EAE72DE9F041002590460E4604462027ED
:101C000017E04069C043C0060CD454F8301B6FF095
:101C10001000486144F810596777A577206A206260
:101C2000257717E0FEF7B0FFA0EB0800B04208D818
:101C30003EB120684169C9434906E2D40020BDE8AD
:101C4000F08144F8305F6773A573206940F020008D
:101C5000206125730120F2E770B516460D46044653
:101C60000DE02046FFF7E9FD08B1012070BD681CBA
:101C700005D0FEF789FF801BA84207D835B1206840
:101C80004069C0430006ECD4002070BD002044F839
:101C9000300F20216173A073216941F0200121617F
:101CA0002073E2E7F0B585B0012504A8CDE9000571
:101CB0004FF47A742B467522D02102941B48FFF70B
:101CC000C3F89DF8100068282ED1002703AE8DF8C8
:101CD0000C700096CDE9015401236B22D0211348EA
:101CE000FFF7DAF907208DF80C000096CDE90154D2
:101CF00001231922D0210D48FFF7CEF98DF80C7081
:101D00000096CDE9015401231C22D0210748FFF79A
:101D1000C3F98DF80C700096CDE9015401231B2204
:101D2000D0210248FFF7B8F905B0F0BD2C00002023
:101D3000F0B585B04FF47A72062103A88DE807004C
:101D400001233B22D0211848FFF77EF8BDF80C0094
:101D5000164C40BA00B22080BDF80E1049BA0EB23F
:101D60006680BDF8101049BA0DB2A580FEF79DFA45
:101D70006FF00D073A46FEF781FAFEF7BAFAE06017
:101D80003046FEF792FA3A46FEF778FAFEF7B1FAD5
:101D900020612846FEF789FA3A46FEF76FFAFEF709
:101DA000A8FA606105B0F0BD2C0000200000002002
:101DB000F0B585B000241D4800940194029403946A
:101DC000816941F010018161816901F01001049184
:101DD000816941F0040181618069154F00F00400C0
:101DE0004FF400550490002229463846FEF7C7FEFE
:101DF0000095022601250396CDE90154694638462F
:101E0000FEF7C0FDCDE90246E802CDE90005094E26
:101E100069463046FEF7B6FDCDE9005469463046C6
:101E20000295FEF7AFFD05B0F0BD000000100240C6
:101E30000010014000080140FEE7704770477047FE
:101E4000FFF7F0B910B590B028216846FEF781F988
:101E500014210AA8FEF77DF90220009001200490C9
:101E600010200024059007946846FFF741FB0F20DF
:101E7000CDE90A040C940D9400210AA80E94FFF7F2
:101E80005BFA10B010BD7047FEE700000FB4084BBE
:101E900010B504A902AA039800F0F4F8044602A9B8
:101EA000002000F086FC204610BC5DF814FB00000A
:101EB000B32700080907090E002804DB00F1E02021
:101EC00080F80014704700F00F0000F1E02080F867
:101ED000141D704702E008C8121F08C1002AFAD179
:101EE00070477047002001E001C1121F002AFBD19A
:101EF000704700000149086070470000280000207A
:101F00002DE9FF5F82B00021DDE90430020DDDF82C
:101F100040B0034318D044F61050A2F2FF324243BF
:101F20001514119801281FD0A5EB0B00401C5FEA87
:101F3000000A4FF000064E4FDFF83891B046504689
:101F400015D5CAF1000413E0119801244AA3012811
:101F500001D16FEA0B010298119AC0E90031C0E982
:101F6000024206B0BDE8F09FCBF10000DFE7044677
:101F70000021404A491842EB0450CDE9001012E01C
:101F8000E00707D032463B4640464946FEF74FFB46
:101F90008046894632463B4610461946FEF747FBC7
:101FA00006460F466410002CEAD1DDE90401DDE9A4
:101FB0000023BAF1000F06DAFEF739FB42464B4622
:101FC000FEF735FB05E0FEF7A4FB42464B46FEF765
:101FD000A0FB04460E460022284BFEF773FC03D8F4
:101FE0004FF0FF30014607E00022254B20463146E6
:101FF000FEF776FAFEF74DFC102409E0002C0ADB10
:102000000A220023FEF7A7F9039B30321A55641EFB
:1020100050EA0102F2D1641C039AC4F11103144482
:10202000119A012A03D0012208430DD10AE0084386
:1020300004D000204FF0110B119072E7A3EB0B05B9
:102040006D1E0DE05B4504DD4FF0000205F101055A
:1020500004E003DA4FF00002A5F10105002AECD0FC
:1020600002981199C0E90231C0E9004579E7000002
:10207000000014400000F03F300000000000F0437A
:102080000000E03F2DE9FF4F95B09B46894606468C
:1020900000250FE2252877D100242746F84A0121A0
:1020A000059400E0044316F8013F203B01FA03F0D9
:1020B0001042F7D130782A2811D06FF02F033078F2
:1020C000A0F13002092A16D8059A44F0020402EB66
:1020D000820203EB42021044761C0590EFE759F8A8
:1020E000042B0592002A03DA504244F40054059070
:1020F00044F00204761C30782E2816D116F8010F11
:1021000044F004042A280DD06FF02F023078A0F19B
:102110003003092B09D807EB870302EB4303C718E9
:10212000761CF3E759F8047B761C30786C280FD0C6
:1021300006DC4C2817D068280DD06A2814D104E09A
:10214000742810D07A280FD10DE044F400140AE06E
:1021500044F4801401E044F440147278824202D1C5
:1021600004F58014761C761C307866280BD013DCBE
:10217000582877D009DC002875D04528F6D04628A5
:10218000F4D047281AD19DE118E0632835D064289F
:1021900079D0652812D195E1702873D008DC6728C2
:1021A000F1D069286FD06E280DD06F2806D1B5E028
:1021B00073282CD0752875D0782874D05A46179972
:1021C00090476D1C75E1C4F30250022809D0032822
:1021D0000DD0D9F8001004280DD00D6009F10409C4
:1021E00067E1D9F80010EA17C1E90052F6E7D9F81B
:1021F00000100D80F2E70D70F0E719F8041B8DF860
:10220000001000208DF80100EA46012003E059F893
:1022100004AB4FF0FF3061074FF0000102D40DE036
:1022200008F101018846B9420FDA8045F8DB1AF857
:1022300008100029F4D108E008F101018846814224
:10224000FADB1AF808100029F6D105985B46A0EBD6
:10225000080721463846179A00F094FA284400EB04
:10226000080507E04DE029E10DE01AF8010B5A4698
:1022700017999047B8F10108F7D25B4621463846D6
:10228000179A13E142E00A220092C4F302524FF07F
:10229000000A022A08D059F804CB032A4FEAEC714D
:1022A0000AD00DE029E02AE009F1070121F0070238
:1022B000F2E802C1914609E00FFA8CFC4FEAEC719A
:1022C000042A03D14FFA8CFC4FEAEC71002907DA9B
:1022D0000A460021DCF1000C61EB02012D2202E034
:1022E000220504D52B228DF80420012203E0E20709
:1022F00001D02022F7E7904659E00A2102E010229F
:102300000DE010214FF0000A00910BE010224FF079
:10231000000A44F004040827009203E008224FF06A
:10232000000A0092C4F30252022A05D059F804CBE5
:102330000021032A08D009E009F1070121F0070272
:10234000F2E802C1914605E01FFA8CFC042A01D193
:102350000CF0FF0C4FF00008220728D5702806D09B
:10236000009B83F0100353EA0A0305D00EE04022DD
:102370008DF80420012208E05CEA010206D0302238
:102380008DF804208DF8050002229046009B83F012
:10239000080353EA0A030AD15CEA010201D1620789
:1023A00005D530228DF804204FF001087F1E5828F3
:1023B00004D034A003900EA802900DE036A0F9E7F7
:1023C00053466046009AFDF7C6FF84460398825C38
:1023D0000298401E029002705CEA0100F0D102985F
:1023E00006A9081A00F1200A600702D524F48034F7
:1023F00000E00127574502DDA7EB0A0000E00020BE
:1024000000EB0A01009005984144401A0590E00352
:1024100006D45B462146179A059800F0B3F90544A7
:10242000002706E001A85A46C05D179990476D1C29
:102430007F1C4745F6DBE0030CD55B462146179A27
:10244000059800F09FF9054404E030205A4617999A
:1024500090476D1C0099481E00900029F5DC08E0AB
:10246000029802995A460078491C029117999047A0
:102470006D1CBAF10001AAF1010AF1DC65E100006E
:10248000092801003031323334353637383961624A
:10249000636465660000000030313233343536370E
:1024A00038394142434445460000000000F058F9E5
:1024B0000544761C307800287FF4ECAD19B028462E
:1024C000BDE8F08F620700D4062709F1070222F069
:1024D000070CFCE80223E14603F000485FEA080C21
:1024E00002D00FF2702C0DE05FEA045C02D50FF20F
:1024F000682C07E05FEAC47C02D00FF2602C01E098
:10250000AFF2700C4FF0FF3823F00043CDF850C00D
:1025100065280CD006DC452809D046281DD0472860
:102520003DD13DE0662818D067287ED138E00021F3
:10253000112F01DB112000E0781CCDE9000106A974
:102540000EA8FFF7DDFCDDE90F010E9A03910021D3
:10255000009207F1010A04914DE04FF0004000970E
:10256000CDE9011006A90EA8FFF7CAFCDDE90F02AC
:1025700003920E9B11990022DDF80CA000930492A7
:1025800011B9791C00EB010AB7EB0A0004D4C0F1C1
:10259000FF3007F1010A0490AAEB0700019044E024
:1025A000012F00DA01270021112F01DD112000E0A9
:1025B0003846CDE9000106A90EA8FFF7A1FCDDE928
:1025C0000F010E9A0391002104910092BA4621074F
:1025D0000CD40399514500DA8A46BAF1010F05DDA2
:1025E000009AAAF10101515C302908D0B84202DA00
:1025F00010F1040F06DA0121CDE9011015E0AAF16E
:102600000101E9E7002805DC049901440491AAEBE3
:10261000000102E0411C514500DD8A460499401A40
:10262000401C01904FF000400290200704D4019814
:10263000504501DBCDF8048000208DF84F00029852
:102640000DF14F07B0F1004F25D02B200E900298CE
:102650004FF0020800280CDA404202902D200E9024
:1026600007E00A210298FDF760FE3031029007F87A
:10267000011DB8F10001A8F10108F2DC0298002860
:10268000EFD1791E0E980870307800F0200040F0ED
:10269000450007F8020D12A8C01B00F107081498A6
:1026A000007800B1012000EB0A01019801EBE07114
:1026B00005984144401A401E0590E00306D45B464D
:1026C0002146179A059800F05DF8054414980078A3
:1026D00018B15A46179990476D1CE00324D55B4604
:1026E0002146179A059800F04DF805441CE004981F
:1026F000002807DBDDE90301884203DD0098405C28
:10270000179901E0179930205A469047049805F12F
:102710000105401C04900198401E019004D12E2018
:102720005A46179990476D1CBAF10001AAF1010AA7
:10273000DDDC05E017F8010B5A46179990476D1C30
:10274000B8F10001A8F10108F4DC5B462146179AB4
:102750000598ABE62D0000002B00000020000000D3
:102760002DE9F041044600251E461746880404D48E
:1027700005E039462020B0476D1C641EF9D5284677
:10278000BDE8F0812DE9F041044600251E46904643
:10279000C80301D5302700E02027880404D505E0D0
:1027A00041463846B0476D1C641EF9D52846BDE841
:1027B000F0810A68531C0B601070704710B58020C0
:1027C00000F044F80024202000F060F8641C462C3F
:1027D000F9DB10BD10B53220FEF7C2F8302000F052
:1027E00035F80520FEF7BCF8302000F02FF8012066
:1027F000FEF7B6F8302000F029F80A20FEF7B0F80E
:10280000202000F023F80A20FEF7AAF8282000F084
:102810001DF80120FEF7A4F8082000F017F80120A9
:10282000FEF79EF8012000F011F80120FEF798F85D
:102830000120FEF795F8062000F008F80120FEF7C9
:102840008FF8BDE810400C20AFF300801CB500F0FD
:10285000F00141F00C028DF8042041F00801000164
:102860008DF8051040F00C018DF8061040F00800BE
:102870008DF8070064200090042301AA4E2102482D
:10288000FEF74CFA1CBD00002C0000201CB500F027
:10289000F00141F00D028DF8042041F00901000122
:1028A0008DF8051040F00D018DF8061040F009007C
:1028B0008DF8070064200090042301AA4E210248ED
:1028C000FEF72CFA1CBD00002C00002010B50446B9
:1028D00002E0641CFFF7DAFF20780028F9D110BD70
:1028E00088B0FEF7A7FCFFF7ADFAFFF761FA56488C
:1028F00054494FF480420160544941600021816095
:10290000C0E9031241618161C1610162FEF742F9D0
:10291000FFF760FFFFF7C6F94DA0FFF7D7FFC8200C
:10292000FEF71EF8FFF74AFF00204C4CDFF830A1FD
:102930004FF4005B4FF40069049001225F46594652
:102940004848FEF71CF90122494655465046FEF715
:1029500016F901212846FEF705F90028EDD10220DD
:10296000FDF7FEFF01212846FEF7FCF80028E4D120
:1029700001212846FEF7F6F80028F9D0A068401C8F
:10298000A060C00755D0C020FFF760FF36A0FFF75A
:102990009DFFD2E7FFF7CCF961690846FDF73CFCE3
:1029A000216907460846FDF737FCE16805460846F9
:1029B000FDF732FC2946FDF7D7FB3946FDF7D4FB7E
:1029C000FDF784FC00F06AF8FDF793FC2A498E427B
:1029D00006DB4FF07E510498FDF7C6FB049000988B
:1029E0000099FDF713FC06468020FFF72FFF23A078
:1029F000FFF76CFF0498FDF769FC02460B4621A126
:102A000005A8FFF743FA05A8FFF760FFC020FFF70E
:102A10001DFF1EA0FFF75AFF59461248FEF7A7F800
:102A2000002249464046FEF7AAF8C820FDF798FF65
:102A300001E0BB46A84601214046FEF793F8012875
:102A4000A7D1A7E7005400402C000020A086010079
:102A5000696E697469616C697A65640000000020C0
:102A600000080140001001407374617475733D707B
:102A70006175736564000000713D8A3F77616C6B1E
:102A800069653D00252E3066000000007374617496
:102A900075733D6163746976650000002DE9F0414E
:102AA00006460F46FDF7A4FE041E0D4618BF012082
:102AB000284320F00040C0F17F6000F1E040C00FEB
:102AC0000ED0301C18BF0120384320F00040C0F168
:102AD0007F6000F1E040C00F04BF0120FFF70AFA59
:102AE00020462946BDE8F0810000000000000000FB
:102AF00001020304060708090000000001020304A4
:102B0000202B0008000000202C000000D41E00082C
:102B10004C2B00082C00002054040000E41E000888
:102B200000000000000000000000000000000000A5
:102B30000000000000000000010000001000000084
:0C2B4000000000000024F4000000000071
:04000005080000ED02
:00000001FF
